{
  "_format": "hh3-artifact-1",
  "contractName": "ALUAssetRegistry",
  "sourceName": "contracts/ALUAssetRegistry.sol",
  "abi": [
    {
      "inputs": [],
      "stateMutability": "nonpayable",
      "type": "constructor"
    },
    {
      "inputs": [
        {
          "internalType": "address",
          "name": "sender",
          "type": "address"
        },
        {
          "internalType": "uint256",
          "name": "tokenId",
          "type": "uint256"
        },
        {
          "internalType": "address",
          "name": "owner",
          "type": "address"
        }
      ],
      "name": "ERC721IncorrectOwner",
      "type": "error"
    },
    {
      "inputs": [
        {
          "internalType": "address",
          "name": "operator",
          "type": "address"
        },
        {
          "internalType": "uint256",
          "name": "tokenId",
          "type": "uint256"
        }
      ],
      "name": "ERC721InsufficientApproval",
      "type": "error"
    },
    {
      "inputs": [
        {
          "internalType": "address",
          "name": "approver",
          "type": "address"
        }
      ],
      "name": "ERC721InvalidApprover",
      "type": "error"
    },
    {
      "inputs": [
        {
          "internalType": "address",
          "name": "operator",
          "type": "address"
        }
      ],
      "name": "ERC721InvalidOperator",
      "type": "error"
    },
    {
      "inputs": [
        {
          "internalType": "address",
          "name": "owner",
          "type": "address"
        }
      ],
      "name": "ERC721InvalidOwner",
      "type": "error"
    },
    {
      "inputs": [
        {
          "internalType": "address",
          "name": "receiver",
          "type": "address"
        }
      ],
      "name": "ERC721InvalidReceiver",
      "type": "error"
    },
    {
      "inputs": [
        {
          "internalType": "address",
          "name": "sender",
          "type": "address"
        }
      ],
      "name": "ERC721InvalidSender",
      "type": "error"
    },
    {
      "inputs": [
        {
          "internalType": "uint256",
          "name": "tokenId",
          "type": "uint256"
        }
      ],
      "name": "ERC721NonexistentToken",
      "type": "error"
    },
    {
      "anonymous": false,
      "inputs": [
        {
          "indexed": true,
          "internalType": "address",
          "name": "owner",
          "type": "address"
        },
        {
          "indexed": true,
          "internalType": "address",
          "name": "approved",
          "type": "address"
        },
        {
          "indexed": true,
          "internalType": "uint256",
          "name": "tokenId",
          "type": "uint256"
        }
      ],
      "name": "Approval",
      "type": "event"
    },
    {
      "anonymous": false,
      "inputs": [
        {
          "indexed": true,
          "internalType": "address",
          "name": "owner",
          "type": "address"
        },
        {
          "indexed": true,
          "internalType": "address",
          "name": "operator",
          "type": "address"
        },
        {
          "indexed": false,
          "internalType": "bool",
          "name": "approved",
          "type": "bool"
        }
      ],
      "name": "ApprovalForAll",
      "type": "event"
    },
    {
      "anonymous": false,
      "inputs": [
        {
          "indexed": false,
          "internalType": "uint256",
          "name": "tokenId",
          "type": "uint256"
        },
        {
          "indexed": false,
          "internalType": "bytes32",
          "name": "contentHash",
          "type": "bytes32"
        },
        {
          "indexed": false,
          "internalType": "address",
          "name": "registeredBy",
          "type": "address"
        }
      ],
      "name": "AssetRegistered",
      "type": "event"
    },
    {
      "anonymous": false,
      "inputs": [
        {
          "indexed": true,
          "internalType": "address",
          "name": "from",
          "type": "address"
        },
        {
          "indexed": true,
          "internalType": "address",
          "name": "to",
          "type": "address"
        },
        {
          "indexed": true,
          "internalType": "uint256",
          "name": "tokenId",
          "type": "uint256"
        }
      ],
      "name": "Transfer",
      "type": "event"
    },
    {
      "inputs": [
        {
          "internalType": "address",
          "name": "to",
          "type": "address"
        },
        {
          "internalType": "uint256",
          "name": "tokenId",
          "type": "uint256"
        }
      ],
      "name": "approve",
      "outputs": [],
      "stateMutability": "nonpayable",
      "type": "function"
    },
    {
      "inputs": [
        {
          "internalType": "address",
          "name": "owner",
          "type": "address"
        }
      ],
      "name": "balanceOf",
      "outputs": [
        {
          "internalType": "uint256",
          "name": "",
          "type": "uint256"
        }
      ],
      "stateMutability": "view",
      "type": "function"
    },
    {
      "inputs": [
        {
          "internalType": "uint256",
          "name": "tokenId",
          "type": "uint256"
        }
      ],
      "name": "getApproved",
      "outputs": [
        {
          "internalType": "address",
          "name": "",
          "type": "address"
        }
      ],
      "stateMutability": "view",
      "type": "function"
    },
    {
      "inputs": [
        {
          "internalType": "uint256",
          "name": "_tokenId",
          "type": "uint256"
        }
      ],
      "name": "getAsset",
      "outputs": [
        {
          "components": [
            {
              "internalType": "string",
              "name": "name",
              "type": "string"
            },
            {
              "internalType": "string",
              "name": "fileType",
              "type": "string"
            },
            {
              "internalType": "bytes32",
              "name": "contentHash",
              "type": "bytes32"
            },
            {
              "internalType": "address",
              "name": "registeredBy",
              "type": "address"
            },
            {
              "internalType": "uint256",
              "name": "registeredAt",
              "type": "uint256"
            }
          ],
          "internalType": "struct ALUAssetRegistry.AssetMetadata",
          "name": "",
          "type": "tuple"
        }
      ],
      "stateMutability": "view",
      "type": "function"
    },
    {
      "inputs": [
        {
          "internalType": "address",
          "name": "owner",
          "type": "address"
        },
        {
          "internalType": "address",
          "name": "operator",
          "type": "address"
        }
      ],
      "name": "isApprovedForAll",
      "outputs": [
        {
          "internalType": "bool",
          "name": "",
          "type": "bool"
        }
      ],
      "stateMutability": "view",
      "type": "function"
    },
    {
      "inputs": [
        {
          "internalType": "bytes32",
          "name": "",
          "type": "bytes32"
        }
      ],
      "name": "isHashRegistered",
      "outputs": [
        {
          "internalType": "bool",
          "name": "",
          "type": "bool"
        }
      ],
      "stateMutability": "view",
      "type": "function"
    },
    {
      "inputs": [],
      "name": "name",
      "outputs": [
        {
          "internalType": "string",
          "name": "",
          "type": "string"
        }
      ],
      "stateMutability": "view",
      "type": "function"
    },
    {
      "inputs": [
        {
          "internalType": "uint256",
          "name": "tokenId",
          "type": "uint256"
        }
      ],
      "name": "ownerOf",
      "outputs": [
        {
          "internalType": "address",
          "name": "",
          "type": "address"
        }
      ],
      "stateMutability": "view",
      "type": "function"
    },
    {
      "inputs": [
        {
          "internalType": "string",
          "name": "_name",
          "type": "string"
        },
        {
          "internalType": "string",
          "name": "_fileType",
          "type": "string"
        },
        {
          "internalType": "bytes32",
          "name": "_contentHash",
          "type": "bytes32"
        }
      ],
      "name": "registerAsset",
      "outputs": [
        {
          "internalType": "uint256",
          "name": "",
          "type": "uint256"
        }
      ],
      "stateMutability": "nonpayable",
      "type": "function"
    },
    {
      "inputs": [
        {
          "internalType": "address",
          "name": "from",
          "type": "address"
        },
        {
          "internalType": "address",
          "name": "to",
          "type": "address"
        },
        {
          "internalType": "uint256",
          "name": "tokenId",
          "type": "uint256"
        }
      ],
      "name": "safeTransferFrom",
      "outputs": [],
      "stateMutability": "nonpayable",
      "type": "function"
    },
    {
      "inputs": [
        {
          "internalType": "address",
          "name": "from",
          "type": "address"
        },
        {
          "internalType": "address",
          "name": "to",
          "type": "address"
        },
        {
          "internalType": "uint256",
          "name": "tokenId",
          "type": "uint256"
        },
        {
          "internalType": "bytes",
          "name": "data",
          "type": "bytes"
        }
      ],
      "name": "safeTransferFrom",
      "outputs": [],
      "stateMutability": "nonpayable",
      "type": "function"
    },
    {
      "inputs": [
        {
          "internalType": "address",
          "name": "operator",
          "type": "address"
        },
        {
          "internalType": "bool",
          "name": "approved",
          "type": "bool"
        }
      ],
      "name": "setApprovalForAll",
      "outputs": [],
      "stateMutability": "nonpayable",
      "type": "function"
    },
    {
      "inputs": [
        {
          "internalType": "bytes4",
          "name": "interfaceId",
          "type": "bytes4"
        }
      ],
      "name": "supportsInterface",
      "outputs": [
        {
          "internalType": "bool",
          "name": "",
          "type": "bool"
        }
      ],
      "stateMutability": "view",
      "type": "function"
    },
    {
      "inputs": [],
      "name": "symbol",
      "outputs": [
        {
          "internalType": "string",
          "name": "",
          "type": "string"
        }
      ],
      "stateMutability": "view",
      "type": "function"
    },
    {
      "inputs": [
        {
          "internalType": "uint256",
          "name": "tokenId",
          "type": "uint256"
        }
      ],
      "name": "tokenURI",
      "outputs": [
        {
          "internalType": "string",
          "name": "",
          "type": "string"
        }
      ],
      "stateMutability": "view",
      "type": "function"
    },
    {
      "inputs": [
        {
          "internalType": "address",
          "name": "from",
          "type": "address"
        },
        {
          "internalType": "address",
          "name": "to",
          "type": "address"
        },
        {
          "internalType": "uint256",
          "name": "tokenId",
          "type": "uint256"
        }
      ],
      "name": "transferFrom",
      "outputs": [],
      "stateMutability": "nonpayable",
      "type": "function"
    },
    {
      "inputs": [
        {
          "internalType": "uint256",
          "name": "_tokenId",
          "type": "uint256"
        },
        {
          "internalType": "bytes32",
          "name": "_contentHash",
          "type": "bytes32"
        }
      ],
      "name": "verifyLogoIntegrity",
      "outputs": [
        {
          "internalType": "bool",
          "name": "",
          "type": "bool"
        },
        {
          "internalType": "string",
          "name": "",
          "type": "string"
        }
      ],
      "stateMutability": "view",
      "type": "function"
    }
  ],
  "bytecode": "0x60806040526001600655348015610014575f5ffd5b506040518060400160405280601281526020017f414c5520417373657420526567697374727900000000000000000000000000008152506040518060400160405280600581526020017f414c554152000000000000000000000000000000000000000000000000000000815250815f908161008f91906102e4565b50806001908161009f91906102e4565b5050506103b3565b5f81519050919050565b7f4e487b71000000000000000000000000000000000000000000000000000000005f52604160045260245ffd5b7f4e487b71000000000000000000000000000000000000000000000000000000005f52602260045260245ffd5b5f600282049050600182168061012257607f821691505b602082108103610135576101346100de565b5b50919050565b5f819050815f5260205f209050919050565b5f6020601f8301049050919050565b5f82821b905092915050565b5f600883026101977fffffffffffffffffffffffffffffffffffffffffffffffffffffffffffffffff8261015c565b6101a1868361015c565b95508019841693508086168417925050509392505050565b5f819050919050565b5f819050919050565b5f6101e56101e06101db846101b9565b6101c2565b6101b9565b9050919050565b5f819050919050565b6101fe836101cb565b61021261020a826101ec565b848454610168565b825550505050565b5f5f905090565b61022961021a565b6102348184846101f5565b505050565b5b818110156102575761024c5f82610221565b60018101905061023a565b5050565b601f82111561029c5761026d8161013b565b6102768461014d565b81016020851015610285578190505b6102996102918561014d565b830182610239565b50505b505050565b5f82821c905092915050565b5f6102bc5f19846008026102a1565b1980831691505092915050565b5f6102d483836102ad565b9150826002028217905092915050565b6102ed826100a7565b67ffffffffffffffff811115610306576103056100b1565b5b610310825461010b565b61031b82828561025b565b5f60209050601f83116001811461034c575f841561033a578287015190505b61034485826102c9565b8655506103ab565b601f19841661035a8661013b565b5f5b828110156103815784890151825560018201915060208501945060208101905061035c565b8683101561039e578489015161039a601f8916826102ad565b8355505b6001600288020188555050505b505050505050565b612998806103c05f395ff3fe608060405234801561000f575f5ffd5b5060043610610109575f3560e01c80638802a541116100a0578063b88d4fde1161006f578063b88d4fde146102da578063c87b56dd146102f6578063e985e9c514610326578063eac8f5b814610356578063f05b24f81461038657610109565b80638802a5411461023f57806395d89b411461026f57806397e430ee1461028d578063a22cb465146102be57610109565b806323b872dd116100dc57806323b872dd146101a757806342842e0e146101c35780636352211e146101df57806370a082311461020f57610109565b806301ffc9a71461010d57806306fdde031461013d578063081812fc1461015b578063095ea7b31461018b575b5f5ffd5b61012760048036038101906101229190611b8f565b6103b6565b6040516101349190611bd4565b60405180910390f35b610145610497565b6040516101529190611c5d565b60405180910390f35b61017560048036038101906101709190611cb0565b610526565b6040516101829190611d1a565b60405180910390f35b6101a560048036038101906101a09190611d5d565b610541565b005b6101c160048036038101906101bc9190611d9b565b610557565b005b6101dd60048036038101906101d89190611d9b565b610656565b005b6101f960048036038101906101f49190611cb0565b610675565b6040516102069190611d1a565b60405180910390f35b61022960048036038101906102249190611deb565b610686565b6040516102369190611e25565b60405180910390f35b61025960048036038101906102549190611f9d565b61073c565b6040516102669190611e25565b60405180910390f35b610277610906565b6040516102849190611c5d565b60405180910390f35b6102a760048036038101906102a29190612025565b610996565b6040516102b5929190612063565b60405180910390f35b6102d860048036038101906102d391906120bb565b610a38565b005b6102f460048036038101906102ef9190612197565b610a4e565b005b610310600480360381019061030b9190611cb0565b610a73565b60405161031d9190611c5d565b60405180910390f35b610340600480360381019061033b9190612217565b610ad9565b60405161034d9190611bd4565b60405180910390f35b610370600480360381019061036b9190611cb0565b610b67565b60405161037d9190612344565b60405180910390f35b6103a0600480360381019061039b9190612364565b610d1a565b6040516103ad9190611bd4565b60405180910390f35b5f7f80ac58cd000000000000000000000000000000000000000000000000000000007bffffffffffffffffffffffffffffffffffffffffffffffffffffffff1916827bffffffffffffffffffffffffffffffffffffffffffffffffffffffff1916148061048057507f5b5e139f000000000000000000000000000000000000000000000000000000007bffffffffffffffffffffffffffffffffffffffffffffffffffffffff1916827bffffffffffffffffffffffffffffffffffffffffffffffffffffffff1916145b80610490575061048f82610d37565b5b9050919050565b60605f80546104a5906123bc565b80601f01602080910402602001604051908101604052809291908181526020018280546104d1906123bc565b801561051c5780601f106104f35761010080835404028352916020019161051c565b820191905f5260205f20905b8154815290600101906020018083116104ff57829003601f168201915b5050505050905090565b5f61053082610da0565b5061053a82610e26565b9050919050565b610553828261054e610e5f565b610e66565b5050565b5f73ffffffffffffffffffffffffffffffffffffffff168273ffffffffffffffffffffffffffffffffffffffff16036105c7575f6040517f64a0ae920000000000000000000000000000000000000000000000000000000081526004016105be9190611d1a565b60405180910390fd5b5f6105da83836105d5610e5f565b610e78565b90508373ffffffffffffffffffffffffffffffffffffffff168173ffffffffffffffffffffffffffffffffffffffff1614610650578382826040517f64283d7b000000000000000000000000000000000000000000000000000000008152600401610647939291906123ec565b60405180910390fd5b50505050565b61067083838360405180602001604052805f815250610a4e565b505050565b5f61067f82610da0565b9050919050565b5f5f73ffffffffffffffffffffffffffffffffffffffff168273ffffffffffffffffffffffffffffffffffffffff16036106f7575f6040517f89c62b640000000000000000000000000000000000000000000000000000000081526004016106ee9190611d1a565b60405180910390fd5b60035f8373ffffffffffffffffffffffffffffffffffffffff1673ffffffffffffffffffffffffffffffffffffffff1681526020019081526020015f20549050919050565b5f60085f8381526020019081526020015f205f9054906101000a900460ff161561079b576040517f08c379a000000000000000000000000000000000000000000000000000000000815260040161079290612491565b60405180910390fd5b5f600654905060065f8154809291906107b3906124dc565b91905055506107c23382611083565b6040518060a001604052808681526020018581526020018481526020013373ffffffffffffffffffffffffffffffffffffffff1681526020014281525060075f8381526020019081526020015f205f820151815f01908161082391906126c3565b50602082015181600101908161083991906126c3565b50604082015181600201556060820151816003015f6101000a81548173ffffffffffffffffffffffffffffffffffffffff021916908373ffffffffffffffffffffffffffffffffffffffff16021790555060808201518160040155905050600160085f8581526020019081526020015f205f6101000a81548160ff0219169083151502179055507f2aa9c4e6dfc93d089f25ff3356df5305b7977f768884056b3bf4c0361e2ab2ac8184336040516108f3939291906127a1565b60405180910390a1809150509392505050565b606060018054610915906123bc565b80601f0160208091040260200160405190810160405280929190818152602001828054610941906123bc565b801561098c5780601f106109635761010080835404028352916020019161098c565b820191905f5260205f20905b81548152906001019060200180831161096f57829003601f168201915b5050505050905090565b5f60608260075f8681526020019081526020015f2060020154036109f55760016040518060400160405280601281526020017f4c6f676f2069732061757468656e7469632e000000000000000000000000000081525091509150610a31565b5f6040518060400160405280601d81526020017f5761726e696e673a206c6f676f20646f6573206e6f74206d617463682e000000815250915091505b9250929050565b610a4a610a43610e5f565b83836110a0565b5050565b610a59848484610557565b610a6d610a64610e5f565b85858585611279565b50505050565b6060610a7e82610da0565b505f610a88611425565b90505f815111610aa65760405180602001604052805f815250610ad1565b80610ab08461143b565b604051602001610ac1929190612810565b6040516020818303038152906040525b915050919050565b5f60055f8473ffffffffffffffffffffffffffffffffffffffff1673ffffffffffffffffffffffffffffffffffffffff1681526020019081526020015f205f8373ffffffffffffffffffffffffffffffffffffffff1673ffffffffffffffffffffffffffffffffffffffff1681526020019081526020015f205f9054906101000a900460ff16905092915050565b610b6f611ae7565b60075f8381526020019081526020015f206040518060a00160405290815f82018054610b9a906123bc565b80601f0160208091040260200160405190810160405280929190818152602001828054610bc6906123bc565b8015610c115780601f10610be857610100808354040283529160200191610c11565b820191905f5260205f20905b815481529060010190602001808311610bf457829003601f168201915b50505050508152602001600182018054610c2a906123bc565b80601f0160208091040260200160405190810160405280929190818152602001828054610c56906123bc565b8015610ca15780601f10610c7857610100808354040283529160200191610ca1565b820191905f5260205f20905b815481529060010190602001808311610c8457829003601f168201915b5050505050815260200160028201548152602001600382015f9054906101000a900473ffffffffffffffffffffffffffffffffffffffff1673ffffffffffffffffffffffffffffffffffffffff1673ffffffffffffffffffffffffffffffffffffffff1681526020016004820154815250509050919050565b6008602052805f5260405f205f915054906101000a900460ff1681565b5f7f01ffc9a7000000000000000000000000000000000000000000000000000000007bffffffffffffffffffffffffffffffffffffffffffffffffffffffff1916827bffffffffffffffffffffffffffffffffffffffffffffffffffffffff1916149050919050565b5f5f610dab83611505565b90505f73ffffffffffffffffffffffffffffffffffffffff168173ffffffffffffffffffffffffffffffffffffffff1603610e1d57826040517f7e273289000000000000000000000000000000000000000000000000000000008152600401610e149190611e25565b60405180910390fd5b80915050919050565b5f60045f8381526020019081526020015f205f9054906101000a900473ffffffffffffffffffffffffffffffffffffffff169050919050565b5f33905090565b610e73838383600161153e565b505050565b5f5f610e8384611505565b90505f73ffffffffffffffffffffffffffffffffffffffff168373ffffffffffffffffffffffffffffffffffffffff1614610ec457610ec38184866116fd565b5b5f73ffffffffffffffffffffffffffffffffffffffff168173ffffffffffffffffffffffffffffffffffffffff1614610f4f57610f035f855f5f61153e565b600160035f8373ffffffffffffffffffffffffffffffffffffffff1673ffffffffffffffffffffffffffffffffffffffff1681526020019081526020015f205f82825403925050819055505b5f73ffffffffffffffffffffffffffffffffffffffff168573ffffffffffffffffffffffffffffffffffffffff1614610fce57600160035f8773ffffffffffffffffffffffffffffffffffffffff1673ffffffffffffffffffffffffffffffffffffffff1681526020019081526020015f205f82825401925050819055505b8460025f8681526020019081526020015f205f6101000a81548173ffffffffffffffffffffffffffffffffffffffff021916908373ffffffffffffffffffffffffffffffffffffffff160217905550838573ffffffffffffffffffffffffffffffffffffffff168273ffffffffffffffffffffffffffffffffffffffff167fddf252ad1be2c89b69c2b068fc378daa952ba7f163c4a11628f55a4df523b3ef60405160405180910390a4809150509392505050565b61109c828260405180602001604052805f8152506117c0565b5050565b5f73ffffffffffffffffffffffffffffffffffffffff168373ffffffffffffffffffffffffffffffffffffffff1603611110575f6040517fa9fbf51f0000000000000000000000000000000000000000000000000000000081526004016111079190611d1a565b60405180910390fd5b5f73ffffffffffffffffffffffffffffffffffffffff168273ffffffffffffffffffffffffffffffffffffffff160361118057816040517f5b08ba180000000000000000000000000000000000000000000000000000000081526004016111779190611d1a565b60405180910390fd5b8060055f8573ffffffffffffffffffffffffffffffffffffffff1673ffffffffffffffffffffffffffffffffffffffff1681526020019081526020015f205f8473ffffffffffffffffffffffffffffffffffffffff1673ffffffffffffffffffffffffffffffffffffffff1681526020019081526020015f205f6101000a81548160ff0219169083151502179055508173ffffffffffffffffffffffffffffffffffffffff168373ffffffffffffffffffffffffffffffffffffffff167f17307eab39ab6107e8899845ad3d59bd9653f200f220920489ca2b5937696c318360405161126c9190611bd4565b60405180910390a3505050565b5f8373ffffffffffffffffffffffffffffffffffffffff163b111561141e578273ffffffffffffffffffffffffffffffffffffffff1663150b7a02868685856040518563ffffffff1660e01b81526004016112d79493929190612885565b6020604051808303815f875af192505050801561131257506040513d601f19601f8201168201806040525081019061130f91906128e3565b60015b611393573d805f8114611340576040519150601f19603f3d011682016040523d82523d5f602084013e611345565b606091505b505f81510361138b57836040517f64a0ae920000000000000000000000000000000000000000000000000000000081526004016113829190611d1a565b60405180910390fd5b805160208201fd5b63150b7a0260e01b7bffffffffffffffffffffffffffffffffffffffffffffffffffffffff1916817bffffffffffffffffffffffffffffffffffffffffffffffffffffffff19161461141c57836040517f64a0ae920000000000000000000000000000000000000000000000000000000081526004016114139190611d1a565b60405180910390fd5b505b5050505050565b606060405180602001604052805f815250905090565b60605f6001611449846117e3565b0190505f8167ffffffffffffffff81111561146757611466611e46565b5b6040519080825280601f01601f1916602001820160405280156114995781602001600182028036833780820191505090505b5090505f82602083010190505b6001156114fa578080600190039150507f3031323334353637383961626364656600000000000000000000000000000000600a86061a8153600a85816114ef576114ee61290e565b5b0494505f85036114a6575b819350505050919050565b5f60025f8381526020019081526020015f205f9054906101000a900473ffffffffffffffffffffffffffffffffffffffff169050919050565b808061157657505f73ffffffffffffffffffffffffffffffffffffffff168273ffffffffffffffffffffffffffffffffffffffff1614155b156116a8575f61158584610da0565b90505f73ffffffffffffffffffffffffffffffffffffffff168373ffffffffffffffffffffffffffffffffffffffff16141580156115ef57508273ffffffffffffffffffffffffffffffffffffffff168173ffffffffffffffffffffffffffffffffffffffff1614155b801561160257506116008184610ad9565b155b1561164457826040517fa9fbf51f00000000000000000000000000000000000000000000000000000000815260040161163b9190611d1a565b60405180910390fd5b81156116a657838573ffffffffffffffffffffffffffffffffffffffff168273ffffffffffffffffffffffffffffffffffffffff167f8c5be1e5ebec7d5bd14f71427d1e84f3dd0314c0f7b2291e5b200ac8c7c3b92560405160405180910390a45b505b8360045f8581526020019081526020015f205f6101000a81548173ffffffffffffffffffffffffffffffffffffffff021916908373ffffffffffffffffffffffffffffffffffffffff16021790555050505050565b611708838383611934565b6117bb575f73ffffffffffffffffffffffffffffffffffffffff168373ffffffffffffffffffffffffffffffffffffffff160361177c57806040517f7e2732890000000000000000000000000000000000000000000000000000000081526004016117739190611e25565b60405180910390fd5b81816040517f177e802f0000000000000000000000000000000000000000000000000000000081526004016117b292919061293b565b60405180910390fd5b505050565b6117ca83836119f4565b6117de6117d5610e5f565b5f858585611279565b505050565b5f5f5f90507a184f03e93ff9f4daa797ed6e38ed64bf6a1f010000000000000000831061183f577a184f03e93ff9f4daa797ed6e38ed64bf6a1f01000000000000000083816118355761183461290e565b5b0492506040810190505b6d04ee2d6d415b85acef8100000000831061187c576d04ee2d6d415b85acef810000000083816118725761187161290e565b5b0492506020810190505b662386f26fc1000083106118ab57662386f26fc1000083816118a1576118a061290e565b5b0492506010810190505b6305f5e10083106118d4576305f5e10083816118ca576118c961290e565b5b0492506008810190505b61271083106118f95761271083816118ef576118ee61290e565b5b0492506004810190505b6064831061191c57606483816119125761191161290e565b5b0492506002810190505b600a831061192b576001810190505b80915050919050565b5f5f73ffffffffffffffffffffffffffffffffffffffff168373ffffffffffffffffffffffffffffffffffffffff16141580156119eb57508273ffffffffffffffffffffffffffffffffffffffff168473ffffffffffffffffffffffffffffffffffffffff1614806119ac57506119ab8484610ad9565b5b806119ea57508273ffffffffffffffffffffffffffffffffffffffff166119d283610e26565b73ffffffffffffffffffffffffffffffffffffffff16145b5b90509392505050565b5f73ffffffffffffffffffffffffffffffffffffffff168273ffffffffffffffffffffffffffffffffffffffff1603611a64575f6040517f64a0ae92000000000000000000000000000000000000000000000000000000008152600401611a5b9190611d1a565b60405180910390fd5b5f611a7083835f610e78565b90505f73ffffffffffffffffffffffffffffffffffffffff168173ffffffffffffffffffffffffffffffffffffffff1614611ae2575f6040517f73c6ac6e000000000000000000000000000000000000000000000000000000008152600401611ad99190611d1a565b60405180910390fd5b505050565b6040518060a0016040528060608152602001606081526020015f81526020015f73ffffffffffffffffffffffffffffffffffffffff1681526020015f81525090565b5f604051905090565b5f5ffd5b5f5ffd5b5f7fffffffff0000000000000000000000000000000000000000000000000000000082169050919050565b611b6e81611b3a565b8114611b78575f5ffd5b50565b5f81359050611b8981611b65565b92915050565b5f60208284031215611ba457611ba3611b32565b5b5f611bb184828501611b7b565b91505092915050565b5f8115159050919050565b611bce81611bba565b82525050565b5f602082019050611be75f830184611bc5565b92915050565b5f81519050919050565b5f82825260208201905092915050565b8281835e5f83830152505050565b5f601f19601f8301169050919050565b5f611c2f82611bed565b611c398185611bf7565b9350611c49818560208601611c07565b611c5281611c15565b840191505092915050565b5f6020820190508181035f830152611c758184611c25565b905092915050565b5f819050919050565b611c8f81611c7d565b8114611c99575f5ffd5b50565b5f81359050611caa81611c86565b92915050565b5f60208284031215611cc557611cc4611b32565b5b5f611cd284828501611c9c565b91505092915050565b5f73ffffffffffffffffffffffffffffffffffffffff82169050919050565b5f611d0482611cdb565b9050919050565b611d1481611cfa565b82525050565b5f602082019050611d2d5f830184611d0b565b92915050565b611d3c81611cfa565b8114611d46575f5ffd5b50565b5f81359050611d5781611d33565b92915050565b5f5f60408385031215611d7357611d72611b32565b5b5f611d8085828601611d49565b9250506020611d9185828601611c9c565b9150509250929050565b5f5f5f60608486031215611db257611db1611b32565b5b5f611dbf86828701611d49565b9350506020611dd086828701611d49565b9250506040611de186828701611c9c565b9150509250925092565b5f60208284031215611e0057611dff611b32565b5b5f611e0d84828501611d49565b91505092915050565b611e1f81611c7d565b82525050565b5f602082019050611e385f830184611e16565b92915050565b5f5ffd5b5f5ffd5b7f4e487b71000000000000000000000000000000000000000000000000000000005f52604160045260245ffd5b611e7c82611c15565b810181811067ffffffffffffffff82111715611e9b57611e9a611e46565b5b80604052505050565b5f611ead611b29565b9050611eb98282611e73565b919050565b5f67ffffffffffffffff821115611ed857611ed7611e46565b5b611ee182611c15565b9050602081019050919050565b828183375f83830152505050565b5f611f0e611f0984611ebe565b611ea4565b905082815260208101848484011115611f2a57611f29611e42565b5b611f35848285611eee565b509392505050565b5f82601f830112611f5157611f50611e3e565b5b8135611f61848260208601611efc565b91505092915050565b5f819050919050565b611f7c81611f6a565b8114611f86575f5ffd5b50565b5f81359050611f9781611f73565b92915050565b5f5f5f60608486031215611fb457611fb3611b32565b5b5f84013567ffffffffffffffff811115611fd157611fd0611b36565b5b611fdd86828701611f3d565b935050602084013567ffffffffffffffff811115611ffe57611ffd611b36565b5b61200a86828701611f3d565b925050604061201b86828701611f89565b9150509250925092565b5f5f6040838503121561203b5761203a611b32565b5b5f61204885828601611c9c565b925050602061205985828601611f89565b9150509250929050565b5f6040820190506120765f830185611bc5565b81810360208301526120888184611c25565b90509392505050565b61209a81611bba565b81146120a4575f5ffd5b50565b5f813590506120b581612091565b92915050565b5f5f604083850312156120d1576120d0611b32565b5b5f6120de85828601611d49565b92505060206120ef858286016120a7565b9150509250929050565b5f67ffffffffffffffff82111561211357612112611e46565b5b61211c82611c15565b9050602081019050919050565b5f61213b612136846120f9565b611ea4565b90508281526020810184848401111561215757612156611e42565b5b612162848285611eee565b509392505050565b5f82601f83011261217e5761217d611e3e565b5b813561218e848260208601612129565b91505092915050565b5f5f5f5f608085870312156121af576121ae611b32565b5b5f6121bc87828801611d49565b94505060206121cd87828801611d49565b93505060406121de87828801611c9c565b925050606085013567ffffffffffffffff8111156121ff576121fe611b36565b5b61220b8782880161216a565b91505092959194509250565b5f5f6040838503121561222d5761222c611b32565b5b5f61223a85828601611d49565b925050602061224b85828601611d49565b9150509250929050565b5f82825260208201905092915050565b5f61226f82611bed565b6122798185612255565b9350612289818560208601611c07565b61229281611c15565b840191505092915050565b6122a681611f6a565b82525050565b6122b581611cfa565b82525050565b6122c481611c7d565b82525050565b5f60a083015f8301518482035f8601526122e48282612265565b915050602083015184820360208601526122fe8282612265565b9150506040830151612313604086018261229d565b50606083015161232660608601826122ac565b50608083015161233960808601826122bb565b508091505092915050565b5f6020820190508181035f83015261235c81846122ca565b905092915050565b5f6020828403121561237957612378611b32565b5b5f61238684828501611f89565b91505092915050565b7f4e487b71000000000000000000000000000000000000000000000000000000005f52602260045260245ffd5b5f60028204905060018216806123d357607f821691505b6020821081036123e6576123e561238f565b5b50919050565b5f6060820190506123ff5f830186611d0b565b61240c6020830185611e16565b6124196040830184611d0b565b949350505050565b7f4572726f723a205468697320636f6e74656e7420686173682068617320616c725f8201527f65616479206265656e2072656769737465726564000000000000000000000000602082015250565b5f61247b603483611bf7565b915061248682612421565b604082019050919050565b5f6020820190508181035f8301526124a88161246f565b9050919050565b7f4e487b71000000000000000000000000000000000000000000000000000000005f52601160045260245ffd5b5f6124e682611c7d565b91507fffffffffffffffffffffffffffffffffffffffffffffffffffffffffffffffff8203612518576125176124af565b5b600182019050919050565b5f819050815f5260205f209050919050565b5f6020601f8301049050919050565b5f82821b905092915050565b5f6008830261257f7fffffffffffffffffffffffffffffffffffffffffffffffffffffffffffffffff82612544565b6125898683612544565b95508019841693508086168417925050509392505050565b5f819050919050565b5f6125c46125bf6125ba84611c7d565b6125a1565b611c7d565b9050919050565b5f819050919050565b6125dd836125aa565b6125f16125e9826125cb565b848454612550565b825550505050565b5f5f905090565b6126086125f9565b6126138184846125d4565b505050565b5b818110156126365761262b5f82612600565b600181019050612619565b5050565b601f82111561267b5761264c81612523565b61265584612535565b81016020851015612664578190505b61267861267085612535565b830182612618565b50505b505050565b5f82821c905092915050565b5f61269b5f1984600802612680565b1980831691505092915050565b5f6126b3838361268c565b9150826002028217905092915050565b6126cc82611bed565b67ffffffffffffffff8111156126e5576126e4611e46565b5b6126ef82546123bc565b6126fa82828561263a565b5f60209050601f83116001811461272b575f8415612719578287015190505b61272385826126a8565b86555061278a565b601f19841661273986612523565b5f5b828110156127605784890151825560018201915060208501945060208101905061273b565b8683101561277d5784890151612779601f89168261268c565b8355505b6001600288020188555050505b505050505050565b61279b81611f6a565b82525050565b5f6060820190506127b45f830186611e16565b6127c16020830185612792565b6127ce6040830184611d0b565b949350505050565b5f81905092915050565b5f6127ea82611bed565b6127f481856127d6565b9350612804818560208601611c07565b80840191505092915050565b5f61281b82856127e0565b915061282782846127e0565b91508190509392505050565b5f81519050919050565b5f82825260208201905092915050565b5f61285782612833565b612861818561283d565b9350612871818560208601611c07565b61287a81611c15565b840191505092915050565b5f6080820190506128985f830187611d0b565b6128a56020830186611d0b565b6128b26040830185611e16565b81810360608301526128c4818461284d565b905095945050505050565b5f815190506128dd81611b65565b92915050565b5f602082840312156128f8576128f7611b32565b5b5f612905848285016128cf565b91505092915050565b7f4e487b71000000000000000000000000000000000000000000000000000000005f52601260045260245ffd5b5f60408201905061294e5f830185611d0b565b61295b6020830184611e16565b939250505056fea264697066735822122063ea9e553f77d434b7f1e6e067f5ff59d424d1077fe5df312b6d187c3b10ddb164736f6c634300081c0033",
  "linkReferences": {},
  "deployedLinkReferences": {},
  "immutableReferences": {},
  "inputSourceName": "project/contracts/ALUAssetRegistry.sol",
  "buildInfoId": "solc-0_8_28-1aad8347b305ddabf0187676c715ffbc40964825"
}